:020000040000fa
:080000000004040000000000f0
:020000040000fa
:08480000042404000000000084
:020000040000fa
:10380000ffffff00ffffff00ffffff00ffffff00c4
:10381000ffffff00ffffff00ffffff00ffffff00b4
:10382000ffffff00ffffff00ffffff00ffffff00a4
:10383000ffffff00ffffff00ffffff00ffffff0094
:020000040000fa
:10480800cfb4210080bf2300000188000000000011
:10481800050007000c000700d03a02000000000065
:104828000040da000000fe004440a9008065200036
:104838000000e0000300320010002000a001880002
:104848004440a8000000060040012a0001002000a2
:104858001600370062004000e0804800910188009f
:104868009001ba0062004000e08048009101880091
:104878009002ba0062004000e08048000002eb00ad
:104888006028e10005003a008301e90007003300d1
:10489800038009000059eb00040037006128e1009b
:1048a800010032000082eb0005000700910188003a
:1048b8001001ba000200e000e6ff3a00000005001f
:1048c800910188008002780062004000e080480082
:1048d8003559ba008301e900080032002559ba00a9
:1048e8008301e900050032000400e000f4ff320013
:1048f80015d9ba008301e900f1ff3a00000006006b
:104908004226040000000000a63104000000000058
:10491800608e040000000000f48b0400000000001a
:1049280084970400000000009a970400000000002b
:10493800a897040000000000da97040000000000b7
:104948008001780002003700815978000201e900ef
:104958000200e000fcff3a00000006008001780039
:1049680002003700b15978000201e9000200e000b6
:10497800fcff3a00000006000b00370010427800e8
:1049880091417800834f5200040032000081eb000f
:104998000700390012002000050037000000e80079
:1049a8008100e8000201e9000200e000f3ff3a009c
:1049b8000200780000000600020007000400be00a4
:1049c800000006006022b800060220000000d000a7
:1049d8008180d2000482d2008582d2000000a0002b
:1049e8000202520083825a0003003b000202420086
:1049f80083824a000000a1000603e900f3ff3a00a1
:104a080000000600839f68000100e00002003d00ee
:104a180060001000e08018000300e00002003d0084
:104a280060011100e0811900e6ff07004f00e00077
:104a380002003b0060001000e08018000000060043
:104a4800811f78000100e00002003d0060001000b6
:104a5800e08018000300e00002003d006001110042
:104a6800e0811900d4ff07004f00e00002003b007e
:104a780060001000e0801800000006000a00fa003c
:104a880040079800e202a900470007003e0007001f
:104a980020079800310798001000200010079800a0
:104aa80010c0b300004f7800240037000060fe00fb
:104ab8004e0090009e009000010060000000e000a1
:104ac80002003200e842a90001003700e842a800cd
:104ad8002d0007000001be002e009000be009000cf
:104ae800000151008181590010a127000100200018
:104af800800f5100818f5900100036002e01900060
:104b0800be01900020a12700010020000200400003
:104b18008380480020079800310798001e00900005
:104b280000004000100798001e0090000000e00000
:104b380002003a0010002000100798001e04e00050
:104b4800daff3a000080fa00000006000400fa00cc
:104b5800000f78001107980013000700ffff3700c7
:104b68000000fa0080032800d00988000080eb00cc
:104b7800b00988000080eb00c00988003be1a8006c
:104b88000080fa00000006000400fa008009800096
:104b9800000f780090098000100798001e00be00e2
:104ba8000080fa00000006000000fa00691a0700f9
:104bb8003e2307000080fa00000006000200fa0009
:104bc800000f78009e0078000040eb00a04098009d
:104bd8009e0078000000eb00a00098009e0078007e
:104be8000000eb00b000980060d680000000e000f4
:104bf8000800320060d68000a00090001e007800f7
:104c08002100980060d680009e007800210098005e
:104c1800020037001e00780060d688000080fa0085
:104c2800000006000000fa0060d680000000e000e6
:104c38001000320010c0b3004cf5b70060d68000f9
:104c48009000780060d68000010001000004e000b8
:104c58000600320061d6800010c0b300a040980062
:104c680060d680002000900060d688000040eb00ed
:104c78004cf5b7000080fa00000006000c00fa00ae
:104c8800200798002e0090003000900050079800f0
:104c98005e009000e10f50001c0032005e009000a2
:104ca800e10f5000040039005e009000e20f500050
:104cb80029003200690037002e0090005000900053
:104cc8000042eb008001eb000041eb008040eb006c
:104cd800380b07002023a800abff07002e01900027
:104ce8006001980071019800ae0090000000eb0090
:104cf800c00098002e009000300090008000e8006e
:104d08002e00900031009800540037009eff0700e5
:104d18000001be002e009000f0009000600090009e
:104d28000001510081815900e000200001002000ad
:104d3800800f5100818f5900480036002023a900b8
:104d48002e009000300090008000e8002e009000b7
:104d5800310098004100370020c3bf006140600067
:104d68000004e0003d00320000188000000f7800c9
:104d78002e00900050009000400798004e009000d0
:104d8800ec0f50000c0032004e009000ed0f500068
:104d98000e0032004e009000eb0f50000100320070
:104da8000e003700c0262000100798001e0078006b
:104db800a0b38800090037000031200010079800d0
:104dc8001e007800b0b3880004003700401f2000a0
:104dd800100798001e007800c0b3880021e3a900de
:104de8001e0090009e0f1000190031002e00900048
:104df80040009000e40f500015003e002e00900087
:104e0800400090008000e8002e00900041009800cb
:104e18002e009000500090000042eb008001eb0053
:104e28000041eb008040eb00e20a07002023a800c5
:104e380055ff07002e01900060019800710198004d
:104e4800ae00900010002000b0009800030037006a
:104e58001000200030079800020037000000eb0027
:104e6800300798003e0090000080fa00000006001d
:104e78001200fa000e80e80021cf2900070009007f
:104e8800311878000001b1000101b1000000eb0009
:104e9800000f7800100037001e007800e1ce2900ce
:104ea80000004000e08078000e80e8005100980083
:104eb8000e80e80041ff0700020037000040eb00c9
:104ec800c40807000e80e800204090000004e000bd
:104ed800faff32001e0fe800100020009e0f10009d
:104ee800edff36000080fa00000006001800fa0006
:104ef800e600470020d0290007000900b018780014
:104f08000101b1000001b100e6004700d000200017
:104f1800d00098000000eb002007980066004700ca
:104f280026ff0700010037003eff07006600470024
:104f3800204090000004e000fbff3200c1b3800075
:104f4800401f2000808f50001a003e000040eb00f8
:104f5800605798002e009000e30f500002003600c2
:104f680010c0b300605798002e0090000000e800c1
:104f7800200798006e5090000004e0000d003a00f1
:104f880001ff0700008fbe00010037000060fe002f
:104f9800fdfe07003e015000ae81580080d023007e
:104fa80001002000800f5100818f5900f7ff360063
:104fb800daff3700c0b380000080fa000000060066
:104fc8000200fa00e7c2bf00624060000004e0008f
:104fd80007003a00a1b38000b0262000808f50005f
:104fe80003003e0010002000000f78000200370088
:104ff8000000eb00000f78001e4078000080fb00e6
:105008000080fa00000006000200fa00e7c2bf00b4
:10501800624060000004e00007003a00b1b380007d
:10502800f0302000808f500003003e001000200068
:10503800000f7800020037000000eb00000f780036
:105048001e4078000080fb000080fa000000060087
:105058000a00fa00300798003e0090006e004000f9
:1050680041260700200798002e0090000000e0006d
:1050780003003a000000eb004007980042003700a8
:105088002e0090006e004000100798003e0090002f
:10509800000f78009e00780020c0b3008048780098
:1050a80082d9800093d980009e007800f00f2000fc
:1050b80000026100114090006040600004407000f0
:1050c800904098004812de00214090006040600047
:1050d80004407000a0409800f00f2000008261009a
:1050e800314090006040600004407000b04098007b
:1050f8004819de00414090006040600002407000a6
:10510800c04098001e007800d0409000e0c06000c9
:1051180051409800e0409000e0c060006140980075
:10512800f0409000e0c06000714098008048900016
:10513800e0c06000014898001e00900080407800a0
:105148001e007800114898001e00900080c0ea00f8
:105158001e007800214898009e0078000040eb006f
:10516800b04898009e007800414890006040600078
:10517800c04898005148900060406000d0489800ae
:105188001e009000400798004e0090000080fa0032
:10519800000006000400fa00000f780011079800cc
:1051a8009e0090001e007800202607000080fa006c
:1051b800000006000600fa00004f7800110798006a
:1051c800220798002e0190009e0090001e40780053
:1051d800f72507000080fa00000006000600fa0024
:1051e80070d6800020079800ae009000e28f500033
:1051f800170032002e009000e20f500004003e001d
:10520800ae009000e18f5000080032005f003700c8
:105218002e009000e30f500017003200ae009000ff
:10522800e48f500027003200580037002064220025
:1052380070aa8800b0002000c0aa8800e0542100ad
:105248005efe07002000200070d68800510037005d
:1052580050d5bf000004e0004e003200c00020001e
:10526800c0aa8800e054210054fe07003000200046
:1052780070d688004700370050d5bf000004e00012
:105288004400320040fe07000001be0080d68000c6
:1052980091d6800000015100818159009025260097
:1052a80021002000800f5100818f59000500360031
:1052b800e0542100143307004000200070d6880015
:1052c8003400370050d5bf000004e0003100320040
:1052d8000040eb002047980039ff07000004e00079
:1052e800030032002e4090000024a00020479800c0
:1052f80045ff07000004e000030032002e40900044
:105308000004a00020479800083307000004e000cc
:1053180003003a002e4090000014a0002047980097
:10532800a0672100000f78001e007800ae409000b2
:105338000148780001b42100914078001e007800ef
:105348001140980025160700804078001e0078005c
:105358002140980050b580000000e00004003200b1
:1053680051b58000a067210001000100040037004a
:1053780042b58000a16721000040eb008dff0700c7
:105388000000eb0070d68800020037000000eb0038
:1053980070d688000080fa00000006000600fa00b7
:1053a800000f780011079800220798001e0190004e
:1053b8009e007800a0672100360907001e009000b3
:1053c80040b588002e00900050b5880010002000dd
:1053d80070d688000080fa00000006000600fa0077
:1053e80010079800210798000000eb00000f7800d4
:1053f800090037009e0078001e0090008080400061
:105408002e0090001e0050006700400010407800f9
:10541800804878001e0fe800700020009e0f1000e2
:10542800f4ff36000080fa00000006000600fa00cb
:1054380010079800210798000000eb00000f780083
:10544800090037009e0078001e009000008140008f
:105458009e0078002e0090000080400010407800e8
:10546800004978001e0fe800900220009e0f1000ef
:10547800f4ff36000080fa00000006001c00fa0065
:10548800205f9800315f98000000eb00100798003b
:105498000000eb00000f78001e0090009e0f100027
:1054a80011003900c71507000004e0000e003200a3
:1054b8003e5890000004e0000b00320010c0b3001a
:1054c800d4fab700b0fd07000001be0090d0230059
:1054d80001002000020040008380480060b5880079
:1054e80071b588002c0037006c0047000001780077
:1054f8006000b8000089be00640141006000b80087
:105508000089be00640141006000b8000089be0047
:10551800640141000000eb00000978001e009000c3
:10552800804078006c004700314098001e007800e9
:10553800804078006c004700414098001e009000b1
:105548009e0f10000c0039006c00470066004000f8
:10555800820020008040eb00b80807006c0047007c
:10556800d040900000c4b30080c070006c004700b9
:105578005140980004003700e40047006c004700e1
:105588006600400095ff07006c0047000001eb0033
:10559800e100200081ff07000080fa0000000600fb
:1055a8000000fa000040eb00d4fab7008040eb009e
:1055b8000040eb00b1ff07000080fa000000060081
:1055c8007a00fa00103f98000040eb00505f980006
:1055d8000040eb00405f98000040eb00305f98000f
:1055e8000040eb00205f98000000eb00400f98009f
:1055f8006000b800200f9800310f98001e38900006
:10560800104078000080fb006101b90070ff2f0096
:10561800f1ff2f000201400083814800323f9800cb
:10562800433f9800b0022000010020003e3990005e
:10563800ce399000800f5100818f59004f023e00f3
:105648003e389000ce3890000060010040003700de
:105658004a02370045003700540037004702370038
:105668006200370030013700440237004302370038
:10567800650037007f003700c50037003f0237005c
:10568800110137003d0237003f013700590137004b
:105698003a023700120137007a013700a9013700b2
:1056a80036023700f2013700340237003302370080
:1056b800320237001f003700c4013700da01370013
:1056c800150037000d003700f70137002c003700b0
:1056d8002a023700290237002f003700da01370085
:1056e800260237002502370024023700230237003c
:1056f8002202370058003700ea0037001e389000b1
:10570800104090000080fb004b15070010c0b3004c
:10571800405f9800190237001e3890001040900032
:105728000080fb003e15070010c0b300405f9800e2
:10573800120237001e389000104090000080fb00d5
:105748003115070010c0b300405f98000b02370006
:105758001e389000104090000080fb0024150700c0
:1057680010c0b300405f98000402370038150700e6
:10577800205f980010c0b300405f9800ff01370019
:10578800bbfd0700b1b38000410f980010c0b30003
:10579800405f9800f901370020002000400f980072
:1057a80010c0b300405f9800f401370028150700c7
:1057b800e0d58800a1002000a0ab210084220700ca
:1057c800205798002e519000225f980010c0b30017
:1057d800405f980010c0b300c8fab7006000b80076
:1057e80020d6880031d68800e401370082012000e5
:1057f800c10221000040eb006efe070010c0b3009c
:10580800305f9800dd0137009e38900021409000fd
:105818000081fb00314090000080fb004800dd0063
:105828000200700080007800d00420000e004000c4
:10583800020220003e1a0700d10420008e8040009a
:10584800020220000040eb005afe070010c0b3001f
:10585800305f9800c901370002012000c101210012
:105868000040eb0053fe070010c0b300305f980003
:10587800c2013700220220000e014100010220006f
:105888008e8040007e004700361707006e58900053
:105898000004e000030032009e119000233f9800ae
:1058a800020037000e109000203f9800ae3890009c
:1058b800010f98009e389000414090000081fb0045
:1058c800514090000080fb004800dd00020070009d
:1058d800804178001e389000904290009e389000d9
:1058e800214090000081fb00314090000080fb00c7
:1058f8004800dd000200700080007800d00420001d
:105908000e004000640040000342780085417800a2
:105918000202200015300700d00420000e004000cd
:10592800104178006048610090409000e0c060003d
:1059380011409800d20420000e0141008e0890000a
:10594800f00f2000808060002240900060406000de
:1059580001407000204198000e089000c800de0049
:105968003240900060406000014070003041980073
:10597800d10420008e804000420220000040eb004d
:105988000cfe070010c0b300305f98007b013700a1
:105998009e389000414090000081fb0051409000eb
:1059a8000080fb004800dd000200700001002000bc
:1059b800c001dd00020020009e38900021409000c8
:1059c8000082fb00314090000080fb004800dd00b1
:1059d8000400700001002000000071008180710047
:1059e80020179800311798002a22070040179800be
:1059f8005117980000012000810f200060079800cf
:105a0800710798000000eb00500798001d00370050
:105a1800410220008e8040005e009000008040001f
:105a280090417800034f9800810220008e8040004a
:105a38005e00900000804000904078007147980018
:105a48008e4890007e40900080cf500004003200c5
:105a58000e4990006e009000fe0090002222070080
:105a68006e009000fe00900062004000e080480058
:105a780060079800710798005e0090000000e80039
:105a8800500798005e009000e30f5000e0ff3600da
:105a980010c0b300c8fab70010c0b300405f980048
:105aa8003601370050b3800001002000200f980015
:105ab800310f980062b38000420f980010c0b30005
:105ac800405f98002d013700f2210700200f980051
:105ad800310f980010c0b300405f980027013700cd
:105ae800020320000e014100e10220008e804000e8
:105af800c00220000e0040009a160700ce699000f0
:105b0800235f98007e109000400f98000e189000b8
:105b180001002000200f9800310f980010c0b3003a
:105b2800405f9800150137009e3890004140900072
:105b38000081fb00514090000080fb004800dd0020
:105b480002007000800178009e389000214090008b
:105b58000081fb00314090000080fb004800dd0020
:105b680002007000800078001e38900010409000fd
:105b780061406000030178008416070010c0b3007c
:105b8800405f9800fd003700620320000e014100cd
:105b9800410320008e804000200320000e004000ba
:105ba800701607002e18900000d688003e18900046
:105bb800f0d5880060b3800010d68800a1002000ce
:105bc800a0ab21008221070060479800ee409000ba
:105bd800215f980010c0b300405f980010c0b30068
:105be800c8fab7006000b80020d6880031d688000f
:105bf800e20037009e389000214090000081fb00b1
:105c0800314090000080fb004800dd000200700079
:105c180080407800d00420000e0040000148780041
:105c28009e389000214090000081fb003140900098
:105c38000080fb004800dd00020070008000780052
:105c48001e38900010429000d00420000e00400042
:105c58000000e8008001780002012000044078007c
:105c68007f190700d10420008e8040001202200016
:105c78000040eb004ffd070010c0b300305f9800f4
:105c8800be0037001e399000220798002e009000b1
:105c9800104890006140600020479800ae009000d6
:105ca800714090000081fb00014890000080fb00db
:105cb8004800dd000200700080017800ae0090000e
:105cc800514090000081fb00614090000080fb0083
:105cd8004800dd000200700080027800ae009000ed
:105ce800314090000081fb00414090000080fb00a3
:105cf8004800dd000200700000037800ae0090004c
:105d0800114090000081fb00214090000080fb00c2
:105d18004800dd00020070002e4290000501780066
:105d280086007800df1807000004e00002003a004f
:105d3800c0c1b300505f980010c0b300405f980026
:105d48008e00370081b5800092b58000a3b5800031
:105d5800b0b5800000027800c5b58000d0b58000dd
:105d680000037800800320000e004000010878003e
:105d7800800320000e0040001200980080032000dd
:105d88000e00400023009800800320000e00400011
:105d980034009800800320000e0040004500980061
:105da800800320000e004000560098008103200068
:105db8008e804000c20020000040eb00fdfc070080
:105dc80010c0b300305f98006c0037009e38900018
:105dd800414090000081fb00514090000080fb0092
:105de8004800dd0002007000800178009e389000b5
:105df800214090000081fb00314090000080fb00b2
:105e08004800dd0002007000800078001e38900015
:105e180010409000030178009113070010c0b300f0
:105e2800405f9800550037001e38900010409000e1
:105e380011c0b300a0130700205f980010c0b30082
:105e4800405f98004d0037009e399000030f78009e
:105e58009e80e8001e00780010409000fa130700aa
:105e6800205f980010c0b300405f980043003700df
:105e78001e38900010409000e14f500004003a0096
:105e880010002000d5140700205f98000300370099
:105e98000000eb00d1140700205f980010c0b30089
:105ea800405f980035003700d4c2bf0070406000e2
:105eb8000004e0001e0032001e38900010409000e0
:105ec800e14f500005003a00410420008e80400058
:105ed80030c5b30080487800040037004104200032
:105ee8008e80400030c4b300804878009e3890000f
:105ef800214090000081fb00314090000080fb00b1
:105f08004800dd0002007000804078004004200056
:105f18000e00400011409800a33407004004200000
:105f28000e004000210020007135070011003700e5
:105f38001e38900010409000e14f50000c003a00cd
:105f48009e389000214090000081fb003140900075
:105f58000080fb004800dd000200700080407800ef
:105f680000cdb30000c04000f9340700010037003d
:105f7800cf34070010c0b300405f98003e5890002f
:105f88000004e0007b003a004e5890000004e00056
:105f980037003a001e38900090407800b0c2b30035
:105fa80080cf500021003a001e3890001040900029
:105fb80048f0b7009e389000214090000081fb0017
:105fc800314090000080fb004800dd0002007000b6
:105fd8000100200020828800318288002082800011
:105fe80031828000c000dd0000002000208288008f
:105ff800318288009e389000414090000081fb006b
:10600800514090000080fb004800dd000200700055
:106018006101b80020828000318280000000710098
:106028008180710020828800318288009e3890002b
:10603800214090000081fb00314090000080fb006f
:106048004800dd0002007000000178001e38900052
:10605800904090001e3890001040780052160700bb
:106068000004e00002003a0010c0b300505f98003e
:10607800600420000e004000ae58900001487800ef
:10608800620420000e014100ce089000f00f2000ad
:1060980000806000c800dd00f00f200012096000d9
:1060a800128970004e089000c800de00f00f200032
:1060b800808160009200900000f02f000080600056
:1060c8000300700010019800620420000e014100d6
:1060d800ae089000f00f200000806000c801dd00cd
:1060e80092009000f00f2000008060000300700014
:1060f800100198002e089000c800de00f00f200064
:1061080080816000a200900000f02f0000806000f5
:106118000300700020019800be089000f00f2000d6
:1061280000806000c801dd00a2009000f00f200090
:106138000080600003007000200198003e08900075
:10614800c800de00f00f200080816000b2009000df
:1061580000f02f00008060000300700030019800fc
:10616800610420008e804000720020005e5890007c
:1061780010fc07000080fa00000006000e00fa007c
:1061880010079800210798003207980043079800e5
:1061980054079800650798001e00900080b5880095
:1061a8002e00900090b588003e009000a0b58800b1
:1061b8004e009000b0b588005e009000c0b5880021
:1061c8006e009000d0b58800c06b2100000f7800e9
:1061d8009e007800d0cbb300804878009e007800fd
:1061e80030c0b300904098009e0078002140900095
:1061f80060406000a040980031409000604060001e
:10620800b04098009e0078004140900060406000d7
:10621800c04098005140900060406000d040980015
:10622800610020001e007800dafb07000080fa00f9
:10623800000006000600fa0020479800c06b210005
:10624800000f78009e007800d0cbb300804878001b
:106258009e00780040c0b300904098000000eb001a
:10626800200798002e4090000004e0000200320051
:1062780013002000230798009e007800f00f2000ec
:10628800ae019000008161002140900060406000f4
:1062980002407000a04098002e0090004801de00e7
:1062a800314090006040600002407000b0409800ab
:1062b8009e0078004140900060406000c040980017
:1062c8005140900060406000d0409800610020007c
:1062d8001e007800affb07000080fa0000000600ef
:1062e8000c00fa005007980071d6bf000004e000c7
:1062f800030032005e009000e52107000f00370020
:10630800000121001040780010479800000121008a
:106318000000e80010407800004f78000e80e80088
:1063280082002000de0090005a050700a20020002d
:106338008e0078000040eb009efb07000080fa000a
:10634800000006000600fa00200798002e009000c2
:10635800100798000040eb00004f780040dbbf00ba
:106368000080fb004600de00610060000004e000e1
:106378000a003a0012fb07000004e00007003a0098
:1063880021fb07000004e00004003a003cd7bf00ee
:10639800be1107000004e00002003a0010c0b3007c
:1063a800004f7800320020009e0090001e407800c8
:1063b80080fb07000080fa00000006008600fa0053
:1063c80010879800218798000e8fe8009e007800bb
:1063d800d0cbb300804878009e00780040c0b3005e
:1063e800904098001e0178009e809000f00f2000d9
:1063f8008080600022409000604060000140700092
:10640800204198001e809000c800de0032409000b5
:106418006040600001407000304198001e01780023
:10642800ae809000f00f2000808060004240900015
:106438006040600001407000404198002e8090004c
:10644800c800de00524090006040600001407000cb
:1064580050419800610020001e0078007321070059
:106468000080fa00000006002800fa00805e210083
:10647800f7fa0700604f98006e4890000004e000ab
:1064880040013200805e210060079800ee00900015
:10649800614890000081fb00714890000080fb007b
:1064a8004800dd00020070003017980060e5240005
:1064b800be109000808f50007300320060e5240009
:1064c8003e129000800f52001e003e0030552400fe
:1064d800be109000808f5000930032003055240089
:1064e8003e129000800f520009003e002035240023
:1064f800be109000808f5000d70032002044240046
:106508003e129000800f5200160132001901370028
:1065180020c42400be109000808f50001901320062
:1065280040c424003e129000800f52009b003200ad
:1065380040652400be109000808f50000401320096
:106548000c013700204525003e129000800f5200b4
:10655800e800320020452500be109000808f5000d2
:106568000d003e00403425003e129000800f52007e
:10657800a200320020352500be109000808f500008
:10658800ad00320030f424003e129000800f52001b
:106598004d003200f700370040542500be1090002f
:1065a800808f500065003200807425003e129000f4
:1065b800800f52000500320030452500be109000c3
:1065c800808f50003b003200ea00370082d98000fb
:1065d80093d98000ef004700f00f20000000610011
:1065e80011427800e0486200914870004812de00cd
:1065f8001140900060406000044070009040980096
:10660800f00f20000082610021409000604060008f
:1066180004407000a04098004819de003140900006
:106628006040600002407000b0409800ef004700f2
:1066380070c3b300c0409800ef00470010c0b3001b
:10664800d0409800ef00470030c0b300e040980009
:10665800ef004700b0c3b300f0409800ef004700d8
:1066680060c0b30080489800ef00470040c0b30006
:1066780090489800ef004700a20020000040eb007f
:10668800ccfa0700bf0037007900470021d1290064
:1066980005000900315878006000b1006100b100c0
:1066a800f9004700620020000040eb00c1fa070033
:1066b800b40037007f0047000001eb0031002000e4
:1066c80036fb0700af0037006e00900070004000f6
:1066d800500798005e009000104078000080fb0092
:1066e800610060000004e00002003200d61aa80031
:1066f80001003700d61aa9005e00900010409000f3
:106708000080fb00610060000004e000010032002e
:10671800ff1007000001eb008000eb000040eb00d9
:10672800a4fa0700970037000001eb008000eb0097
:106738000040eb009ffa0700920037006e009000bf
:1067480070004000400798004e0090009080fb00c9
:10675800104090000080fb004800dd000100700040
:1067680011c0b300ef3307000001eb008000eb001d
:106778000040eb008ffa07004e0090009080fb006d
:10678800104090000080fb004800dd000100700010
:106798001100200009ff07007a0037006e00900002
:1067a80070004000300798003e0090009080fb0089
:1067b800104090000080fb004800dd0001007000e0
:1067c8008040eb00d73307000001eb008000eb00ae
:1067d8000040eb0077fa07003e0090009080fb0035
:1067e800104090000080fb004800dd0001007000b0
:1067f8008000eb00f1fe0700620037006e00900099
:1068080070004000200798002e0090009080fb0048
:10681800104090000080fb004800dd00010070007f
:10682800dc3307000001eb008000eb000040eb00c8
:1068380060fa0700530037005e1307000004e00009
:1068480050003a000001eb008000eb00c0c1b3002b
:1068580058fa07004b0037006e00900070004000a7
:1068680010079800d63aa8001e0090001040780043
:106878000080fb000000d1000004a200614060001d
:106888008efab7001e00900010407800614060004a
:106898003cf7b7001e009000104078000080fb0015
:1068a8004300de006140600068f6b7001e009000fb
:1068b800104078000080fb004400de00614060006a
:1068c800d8fab7001e009000104078000080fb0046
:1068d8004200de006140600069f6b7002002200037
:1068e8000e004000621a230031002000abfa0700b6
:1068f800240037006e00900070004000000f780000
:10690800d7dabf000004e0000c0032001e00780057
:10691800104078000004e000030032000040eb0063
:10692800d7fab700050037000001eb008000eb0044
:1069380010c0b3001ffa0700120037001e007800cd
:106948001040780011c0b300ccfa07000d003700e2
:106958000001eb008000eb0010c0b30015fa07003f
:10696800080037006e0090007000400014fb07001c
:10697800040037000001eb008000eb0010c0b300fa
:106988000cfa07000080fa00000006000000fa0078
:10699800889fbe00d4dabf000004e000090032007e
:1069a80068b5800079b5800077f8070000005400ca
:1069b80081805c00e00f5000e08f580001003d002e
:1069c800f7fa07004f04be000080fa000000060036
:1069d8000600fa002047980031479800424798007f
:1069e800c06b2100000f78009e007800c0c3b30080
:1069f800804878001e007800ae4090001140980052
:106a08001e007800be409000214098001e007800cb
:106a1800ce40900031409800400020000080fa00ed
:106a2800000006000000fa00100020000080fa00b4
:106a3800000006002600fa00600f9800615f9800c9
:106a480002179800fadabf000004e00005003200df
:106a58000e119000ee5890006e089000cf210700ac
:106a6800d30137000000eb00500f98006e0890002b
:106a78006101b800121798002317980090012000b0
:106a8800010020001e119000ae119000800f5100ef
:106a9800818f5900ba013e001e109000ae10900080
:106aa80000600100190037002f0037004b00370045
:106ab800540037005d003700660037006f0037006c
:106ac800780037008b00370080003700ac013700b2
:106ad800ab01370091003700a0003700af00370046
:106ae800be003700cd003700dc003700eb00370070
:106af800fa00370053013700790137000e003700dc
:106b080013003700010137002701370010c0b30018
:106b1800d7fab700b0d680000000d100614060000d
:106b2800804078000041eb000040eb00a8ff070020
:106b3800500f9800920137000041eb00ee5890008a
:106b480050c0b300a2ff0700500f98008c01370017
:106b58000041eb00ee58900060c0b3009cff0700b6
:106b6800500f980086013700d4dabf000004e00017
:106b7800010032008afa07000040eb00105f98001d
:106b88006e5890000004e000030032001e58900088
:106b98000004a000105f980010100700005f980024
:106ba8000e5890000080fb004400de006100600089
:106bb8000004e000030032001e5890000014a000fa
:106bc800105f98000041eb009e58900010c0b30081
:106bd8007fff0700500f980069013700d4dabf0023
:106be8000004e000010032006dfa07000041eb00ec
:106bf8008040eb0020c0b30075ff0700500f9800dd
:106c08005f013700d4dabf000004e0000100320061
:106c180063fa07000041eb008040eb0030c0b3008e
:106c28006bff0700500f980055013700d4dabf00fa
:106c38000004e0000100320059fa07000041eb00af
:106c480031c0b30040c0b30061ff0700500f980087
:106c58004b013700d4dabf000004e0000100320025
:106c68004ffa07000041eb0021c0b30040c0b30059
:106c780057ff0700500f980041013700d4dabf00d2
:106c88000004e0000100320045fa07000041eb0073
:106c980041c0b30040c0b3004dff0700500f98003b
:106ca80037013700d4dabf000004e00001003200e9
:106cb8003bfa07000041eb0011c0b30040c0b3002d
:106cc80043ff0700500f98002d013700d4dabf00aa
:106cd8000004e0000100320031fa07000041eb0037
:106ce80061c0b30040c0b30039ff0700500f9800df
:106cf80023013700d4dabf000004e00001003200ad
:106d080027fa07000041eb0051c0b30040c0b300b0
:106d18002fff0700500f980019013700d6dabf007f
:106d2800624060000004e00015013200c06b2100e1
:106d3800300f9800be08900000c5b3008048780066
:106d48008e1090003e0890000000e800b7f9070098
:106d5800b0022000500f980009013700d6dabf00b2
:106d6800624060000004e00005013200c06b2100b1
:106d7800200f9800ae08900010c5b3008048780036
:106d88008e1090002e0890000000e800a7f9070078
:106d9800b0022000500f9800f9003700d6dabf0083
:106da800624060000004e000f5003200c06b210082
:106db800100f98009e08900020c5b3008048780006
:106dc8008e1090001e0890000000e80097f9070058
:106dd800b0022000500f9800e9003700d6dabf0053
:106de800624060000004e000e5003200c06b210052
:106df800000f98008e08900030c5b30080487800d6
:106e08008e1090000e0890000000e80087f9070037
:106e1800b0022000500f9800d9003700d6dabf0022
:106e2800624060000004e000d5003200c06b210021
:106e380070079800fe009000e0c3b3008048780017
:106e48008e1090007e0090000000e80063f90700b3
:106e580090002000500f9800c9003700d6dabf0014
:106e6800624060000004e000c5003200c06b2100f1
:106e780060079800ee009000f0c3b30080487800e7
:106e88008e1090006e0090000000e80053f9070093
:106e980090002000500f9800b9003700d6dabf00e4
:106ea800624060000004e000b5003200c06b2100c1
:106eb80050079800de009000d0c3b30080487800e7
:106ec8008e1090005e0090000000e80043f9070073
:106ed80090002000500f9800a9003700c06b2100d7
:106ee80040079800ce009000a0c3b3008048780007
:106ef8008e1090004e0090000000e80037f907005f
:106f080090002000500f98009d003700c06b2100b2
:106f180030079800be009000d0cbb30080487800be
:106f2800be00900050c0b300904098006e5890008a
:106f38008081fb00be009000f00f200000816100fe
:106f4800214090006040600002407000a04098001e
:106f58004819de0031409000604060000240700037
:106f6800b04098000e10900090017800be0090008c
:106f7800f00f2000008161004140900060406000f7
:106f880002407000c04098004819de00514090004f
:106f98006040600002407000d0409800600020000f
:106fa800500f980076003700c06b2100200798002a
:106fb800ae009000d0cbb30080487800ae009000bf
:106fc80060c0b300904098006e5890008081fb002c
:106fd800ae009000f00f2000008161002140900079
:106fe8006040600002407000a04098004819de0030
:106ff800314090006040600002407000b04098004e
:107008000e10900090017800ae009000f00f200064
:1070180000816100414090006040600002407000c3
:10702800c04098004819de00514090006040600060
:1070380002407000d040980060002000500f980077
:107048004f003700c06b2100100798009e00900089
:10705800d0cbb300804878009e00900010c0b300e9
:10706800904098006e5890008081fb009e00900030
:10707800f00f200000816100214090006040600016
:1070880002407000a04098004819de00314090008e
:107098006040600002407000b04098000e10900000
:1070a800900178009e009000f00f200000816100a0
:1070b800414090006040600002407000c04098006d
:1070c8004819de00514090006040600002407000a6
:1070d800d040980060002000500f9800280037002a
:1070e800c06b2100000f78009e007800d0cbb30061
:1070f800804878009e00780020c0b3009040980037
:107108000040eb001c140700800178009e00780006
:10711800f00f200000816100214090006040600075
:1071280002407000a04098004819de0031409000ed
:107138006040600002407000b040980010c0b3008a
:107148000d140700800178009e007800f00f2000e1
:107158000081610041409000604060000240700082
:10716800c04098004819de0051409000604060001f
:1071780002407000d040980060002000500f980036
:107188005e0890000000e0000900320002003700ad
:107198000040eb000f00070022fe07000004e0009b
:1071a800fbff3200de089000c06b2100f9f70700f2
:1071b8000080fa00000006000000fa00d4dabf00e0
:1071c8000004e00001003200f5f807000080fa0032
:1071d800000006000a00fa00004f98006af607004f
:1071e80020079800310798002c00370090b38000e2
:1071f800f1d68000010060000000e00002003200cb
:10720800e202a90001003700e202a800f0d68000df
:1072180000004000f0d68800f0d680000000e000b2
:1072280002003a0010002000f0d68800f0d6800056
:1072380001082800010060000000e0000f00320093
:10724800e8c2bf000080fb004300de000004a2008b
:107258006140600061406000614060006140600022
:107268004301dd00812e20009140780070cfb300eb
:1072780000c0600002407000e8e2b70010ab800078
:1072880021ab8000b2c424000300200000004100ac
:107298008180490010ab880021ab880012ab8000c8
:1072a80023ab80002e009000be0090000201500029
:1072b80083815800b0c4240001002000800f5100d1
:1072c800818f5900c9ff3e000060fe000e48900003
:1072d8000004e00045003a00b8dabf000004e0000e
:1072e80001003a00a903070070d680000000e00002
:1072f80002003200b9f7070031003700fadabf00a0
:107308000004e00003003200a11f0700c31e0700ad
:107318002b00370071d6bf000004e00001003200e6
:10732800be1e070050fc070098fd07002400370028
:107338002331070080007800e0d98000808f50005a
:107348000b0031001e3107006a004000100798004a
:107358009e009000c0122000808f50000200340070
:10736800c0122000100798001e009000e00e880050
:107378001331070080007800e0d98000808f50002a
:10738800090036000e3107006a005000000f78002f
:107398001e00e00002003d000000eb00000f780036
:1073a8001e007800e00e8800f0aa800001ab800083
:1073b800d030b0000180b000f0aa880001ab88008e
:1073c800f2aa800003ab80002e009000be0090005f
:1073d8000201500083815800d030200001002000b5
:1073e800800f5100818f5900d1ff3e000df6070034
:1073f800e5f5070020d6880031d688000040eb006c
:10740800c8fab7000080fa00000006000800fa0079
:107418002007980031079800dbf50700008fbe00b1
:10742800020037000040eb006aff0700d6f50700ae
:107438003e015000ae8158002e009000be00900022
:10744800800f5100818f5900f6ff39000080fa0043
:10745800000006000600fa000000eb0090b3880068
:10746800c9dabf000004e00017003a0010c0b300fa
:10747800c9fab700c4f507000001be00304b2c0064
:1074880041002000800f5100818f59000e003e00fe
:1074980050d6800080407800b0c3b300004f780019
:1074a800114798000040eb00204798000040eb008f
:1074b800304798000040eb004047980051002000fa
:1074c8000e00780033f707000080fa00000006007d
:1074d8000000fa00a62a0700e202a900de02a900bd
:1074e800dcc2a900d8c2a9000000eb00400e880049
:1074f800681b070060d9880071d9880060d98000ae
:1075080071d980000e01070080d9880091d98800c0
:107518000080fa00000006000000fa000000fe00eb
:107528000080fa00004006000000fa000000fe009b
:107538000080fa00004006000000fa000000fe008b
:107548000080fa00004006000000fa000000fe007b
:107558000080fa00004006000000fa000000fe006b
:107568000080fa00004006000000fa000000fe005b
:107578000080fa00004006000000fa000000fe004b
:107588000080fa00004006000000fa000000fe003b
:107598000080fa00004006000a00fa0040c7bf0059
:1075a800614060000004e000030032001000200089
:1075b80050d688002600370040c7bf000044b200fc
:1075c8000004e000030032000000eb0050d6880001
:1075d8001f00370040c7bf00624060000004e000a1
:1075e800030032002000200050d688001800370021
:1075f80040c7bf0001c8b300014060000004e000bc
:10760800030032003000200050d6880010003700f8
:1076180040c7bf00704060000004e0000300320073
:107628004000200050d688000900370041c7bf003d
:107638000044b2000004e0000300320050002000c3
:1076480050d68800020037001000200050d688006d
:107658004007a90040c7a9004027a9004087a90002
:1076680040e7a90041c7a9009002800010079800d0
:10767800ff3ffc00210420009140780000ceb300b9
:1076880000c0700042e0b7001e0090009002880021
:107698008fff070032f50700ee010700581b0700af
:1076a800a1002000a0ab2100ac1a070001d6800081
:1076b800700a2000808f500002003600700a2000f7
:1076c80000d6880011d6800020152000808f500039
:1076d80004003e0011d68000d0132000808f500097
:1076e80002003e00e014200010d6880010d680006a
:1076f80060b3880060b38000610060000004e000af
:1077080002003200e014200060b38800f7f507009b
:10771800800078000040eb00004f9800301f2000e8
:10772800808f500002003e0011c0b300014f980046
:107738000e48900071f6b70071d6bf000004e00053
:1077480003003200110020003107980002003700c2
:107758005000200030079800be00900091b38800c8
:1077680050d68000e10f500003003a000000eb0003
:107778008080880009003700808080000000e800d1
:1077880080808800808080000000e00003003a00cc
:10779800808080000000e9008080880000d680009a
:1077a800f2d58000e4d58000800178008040eb00ad
:1077b80004007800aa04070071d6bf000004e000a6
:1077c80002003200f91e07000900370050d6800079
:1077d8008040eb00414798000000e00002003a00ba
:1077e80010c0b300404798004e409000f5170700be
:1077f80076180700b52f0700992e07006000b8001b
:1078080020d6880031d68800b81aa90090028000d6
:10781800000f7800ff3ffc0042c0bf007f406000bf
:1078280042e0b7001e00780090028800e4120700ca
:107838000000eb000080fa00000006000a00fa00d1
:107848002007980061479800420798002e00900092
:10785800000f78000000eb001007980007003700c1
:107868001e007800ee409000014878001e0fe800e6
:107878001e0090000000e800100798009e0090008d
:107888004e009000808f5000f5ff39000080fa000c
:10789800000006000c00fa00300798004107980025
:1078a800520798003e009000100798004e00900084
:1078b800000f78000000eb00200798000b0037004d
:1078c8001e007800904078001e0090000148780063
:1078d8001e0090000000e800100798001e0fe80046
:1078e8002e0090000000e80020079800ae009000ed
:1078f8005e009000808f5000f1ff39005e0090001c
:107908000080fa00000006000400fa00000f78006a
:10791800f00f20009e0f100003003600f00f20002b
:1079280010079800030037001e0078000080fb0055
:10793800100798001e0090000080fa000000060062
:107948000e00fa005007980061079800660047008b
:10795800200798006a00470063004000100798005d
:107968000000eb00000f78000b0037001e009000ad
:10797800904078002e009000014878002e0090007a
:107988000000e800200798001e0090000000e900b1
:10799800100798001e0fe800300020009e0f10000e
:1079a800f2ff36003e009000ce0090000080fa0002
:1079b800000006000a00fa001007980041479800e6
:1079c8005247980033079800044f98004e409000a3
:1079d8000004e0000600320020c3bf0001ceb3005f
:1079e8000140700020e3b7002043a8001a003700c8
:1079f8005e4090000004e000130032001061a9000e
:107a080013e1a9001221a90012c1a9002111200027
:107a180091407800f0ccb30000c0600012e1b700dc
:107a28003e0090000000e9007008880020c3bf00f5
:107a38007f40600001c4b3000140700020e3b7003c
:107a48002043a8000400370020c3bf007f40600027
:107a580020e3b7002043a90023c3bf007f40600094
:107a680023e3b7000e4890000004e000070032004e
:107a78001132200091407800c0cfb30000c06000f0
:107a88000004a00021e3b7000400370021c3bf00b1
:107a9800c1cfb3000140600021e3b7002143a90032
:107aa8002183a8002063a9002223a9002343a90059
:107ab8003132200091407800c0cfb30000c0600090
:107ac80023e3b700213220009140780030ccb30086
:107ad80000c0600022e3b7002203a90020c0b30061
:107ae80024e3b700513220009140780000ceb30063
:107af80000c060000004a00025e3b70025e3a9004a
:107b08009e009000100020000100dd00000f7800aa
:107b18001e0078008019880029e3a90028e3a9003d
:107b28001e0090007f4060007f416000913220007d
:107b38009140780000ceb30000c0600002407000a1
:107b480029e3b7001e0090007f4060007f4160007d
:107b5800813220009140780000ceb30000c0600060
:107b68000240700028e3b70085a0a90095a0a900ed
:107b7800a10a200091407800f0c8b30000c060005e
:107b880001c6b30001407000aae0b70021e3a800d5
:107b98000080fa00000006000a00fa0010079800aa
:107ba800414798005247980033079800044f9800bf
:107bb8004e4090000004e0000600320060c3bf00a1
:107bc80001ceb3000140700060e3b7006043a80035
:107bd8001a0037005e4090000004e00013003200f5
:107be8001e61a90021e1a9002021a90020c1a90046
:107bf8000112200091407800f0ccb30000c0600072
:107c080020e1b7003e0090000000e900e00888008d
:107c180060c3bf007f40600001c4b3000140700032
:107c280060e3b7006043a8000400370060c3bf00ea
:107c38007f40600060e3b7006043a90063c3bf00f2
:107c48007f40600063e3b7000e4890000004e00046
:107c5800070032001136200091407800c0cfb300f1
:107c680000c060000004a00061e3b7000400370012
:107c780061c3bf00c1cfb3000140600061e3b7003a
:107c88006143a9006183a8006063a9006223a90079
:107c98006343a9003136200091407800c0cfb3007b
:107ca80000c0600063e3b7002136200091407800ef
:107cb80030ccb30000c0600062e3b7006203a900e3
:107cc80020c0b30064e3b70051362000914078002b
:107cd80000ceb30000c060000004a00065e3b70058
:107ce80065e3a9009e009000100020000100dd005f
:107cf800000f78001e007800801b880069e3a90047
:107d080068e3a9001e0090007f4060007f4160008a
:107d1800913620009140780000ceb30000c060008a
:107d28000240700069e3b7001e0090007f406000c9
:107d38007f416000813620009140780000ceb3007a
:107d480000c060000240700068e3b70086a0a90088
:107d580096a0a900e10a200091407800f0c8b3007d
:107d680000c0600001c6b30001407000aee0b7007b
:107d780061e3a8000080fa00000006000600fa008f
:107d8800000f780011079800220798008dc3a900fa
:107d9800c138200091407800f0ccb30000c06000ea
:107da8008ce3b700c138200091407800c0cfb30001
:107db80000c060000014a0008ce3b7008d83a90008
:107dc8008da3a9001e007800a01c88001e0090004a
:107dd800701c88002e0090000000e900b01c88008c
:107de8000080fa00000006000600fa00000f780084
:107df800110798002207980099c3a900813920002b
:107e080091407800f0ccb30000c0600098e3b70060
:107e18008139200091407800c0cfb30000c06000d5
:107e28000014a00098e3b7009983a90099a3a900ba
:107e38001e007800001d88001e009000d01c8800dd
:107e48002e0090000000e900101d88000080fa0054
:107e5800000006000000fa000040eb0050fab700ee
:107e68000040eb0051fab7006000b800e0d388008a
:107e7800f1d388006000b80000d4880011d48800cd
:107e880020a521006011b8000288be0064004000ef
:107e98006011b8000288be00640040006011b8009c
:107ea8000288be00640040006011b8000288be006d
:107eb800640040006011b8000288be006400400001
:107ec8006011b8000288be00640040006011b8006c
:107ed8000288be00640040006011b8000288be003d
:107ee800640040006011b8000288be0064004000d1
:107ef8006011b8000288be00640040008000eb00fa
:107f0800010878000080fa00000006000400fa006a
:107f1800000f7800110798001e0078006600b9006d
:107f28008000780060a52100008040009e0090003d
:107f3800010878000080fa00000006000a00fa0034
:107f480011f307003007980041079800e2d380003a
:107f5800f3d380003e009000ce0090000201500054
:107f6800838158000000200001f02f00020040002b
:107f7800838048001007980021079800e2d380000a
:107f8800f3d380001e009000ae0090000200400075
:107f980083804800e0d38800f1d3880002d48000b1
:107fa80013d480001e009000ae0090000000510025
:107fb8008180590000d4880011d488000040eb006b
:107fc800004f7800110037001e82fb001e80fb0066
:107fd8006600b9008000780020a5210000804000dc
:107fe8001001be001e009000ae009000000151007c
:107ff800818159006620b9008000780020a5210001
:10800800008040000288be001e4fe80060c0b30038
:108018009e4f1000ecff36000080fa0000000600ba
:108028000600fa0010c0b30050479800d6f20700c7
:108038000001be00e0d38000f1d38000001f510092
:10804800019759000080eb008080eb0000d4880085
:1080580011d488000040eb004047980046003700e4
:1080680050dabf00de409000014060000004e000ec
:108078003b0032004e4090000080fb006600b900d3
:108088008000780020a52100008040001000be007c
:10809800be0f5000ae8f58001c003e005e4090009e
:1080a80080c0ea0050dabf0000c0600050fab70094
:1080b80011a52100914078005e40900000c070003a
:1080c80051fab7004e4090000080fb006600b900ee
:1080d800e400400020a52100008040001000780046
:1080e8000000e0001e0032004e4090000080fb00bf
:1080f8006600b900e400400020a52100008040008f
:108108001000780000000100150037004e40900074
:108118000080fb006600b9008000780020a52100df
:10812800008040001001be0000d4800011d48000ff
:10813800800f5100818f5900090031004e40900096
:108148000080fb006600b9008000780020a52100af
:10815800008040001000be0000d4880011d48800c0
:108168005e40900000404000504798004e4090000c
:108178000040e800404798004e409000e64f50000d
:10818800b7ff36000080fa00000006000200fa007f
:1081980050dabf000004e0000c0032007af2070059
:1081a8000001be00e0d38000f1d38000000151003f
:1081b8008181590000d4800011d48000800f5100c3
:1081c800818f59000100390095ff070051dabf007f
:1081d8008000eb00010f78000004e000020032008c
:1081e80010002000000f78001e0078000080fa00c0
:1081f800000006000400fa00100798009e00900096
:10820800100020000100dd00004f780050dabf00a8
:108218001e4060000004e000110032001e4078009b
:1082280080c0ea0050dabf0000c0600050fab70012
:108238001e0090006600b9008000780020a521008b
:10824800008040001001be0000d4800011d48000de
:10825800800f5100818f590001003a0070ff07001c
:108268001e40780080c0ea0051dabf0000c06000fc
:1082780051fab7000080fa00000006000c00fa006e
:10828800300798004207980053079800be009000f6
:10829800100020000100dd00404798003af2070076
:1082a8000001be00e0d38000f1d38000000151003e
:1082b800818159000000200001802000800f5100ba
:1082c800818f5900010036001cff0700e2d38000af
:1082d800f3d380004e009000de009000021f500093
:1082e8000397580001a52100914078004e40900066
:1082f80000c060000004e0000b0032003e00900067
:108308006600b9008000780020a5210000804000a8
:108318001000be00be0f5000ae8f58001e00320085
:108328003e009000b3ff07003e0090006600b900d1
:108338008000780020a52100008040001e01be00ba
:108348000288be0050dabf000004e00005003200d9
:1083580000d4800011d48000be0f1000ae8f18002a
:10836800030031001e00be0000d4880011d488002c
:1083780001a52100914078004e40900000c0700097
:1083880050fab7004e40900080c0ea0051dabf00b2
:1083980000c0600051fab7000080fa000000060033
:1083a8000600fa00000f78001207980023079800cb
:1083b800f5f107001e019000ae0190000001410098
:1083c800818149001e007800acff07000080fa0098
:1083d800000006001000fa00500798006207980095
:1083e80073079800de009000100020000100dd00f7
:1083f800004f9800e4f10700200798003107980023
:10840800e2d38000f3d380002e009000be009000dd
:1084180002015000838158000000200001802000e4
:10842800800f5100818f590001003600c3fe0700fc
:108438005e0090006600b9008000780020a5210049
:10844800008040001001be006e009000fe00900009
:10845800001f410001974900e2d38000f3d3800058
:108468002e009000be00900002005000838058004b
:108478003e011000ae8118000200be00e00f50005f
:10848800e08f58001900350001a5210091407800bf
:108498000e48900000c0700050fab7000e489000d7
:1084a80080c0ea0051dabf0000c0600051fab7008e
:1084b8005e0090006600b9008000780020a52100c9
:1084c800008040001e01be000288be0000d480006b
:1084d80011d48000be0f1000ae8f180003003100c9
:1084e8001e00be0000d4880011d488000080fa0065
:1084f800000006000400fa00000f78001107980039
:108508001e0278001e0078006600b900800078001e
:1085180020a52100008040001001be001e00900030
:10852800cf80de0002014000838148006620b90048
:108538008000780020a52100008040000288be004d
:10854800b7fe07000080fa00000006001000fa00dd
:1085580020079800310798004207980054079800b0
:10856800650798004e0090006600b900800078000a
:1085780020a52100008040001001be00e0d380004b
:10858800f1d3800002014000838148002e00900052
:10859800be009000021f5000039758005e00900034
:1085a800ee009000be0f1000ae8f180003003100df
:1085b8001e007800700798001d0037001e00be00de
:1085c800e00f5000e08f5800060035001e00be0086
:1085d8005e019000ee019000f7f007007007980028
:1085e800130037001e00be000080ea008180ea0008
:1085f800008fbe005e009000ee009000be0f1000dd
:10860800ae8f1800050039001e00be005e01900004
:10861800ee019000e8f00700008fbe005e009000b9
:108628009e007800010050000000e90070079800e3
:108638007e0090000080fa00000006000600fa00a4
:10864800000f780012079800230798006000b80010
:10865800e0d38800f1d388001e0078006600b900d6
:108668008000780020a52100008140006000b8004b
:108678000089be000080fa0000000600881f78000c
:108688008a1f78004400a800e03aef008102d00079
:108698000000d00001003200e01aa80027ae210037
:1086a800cae82300000545000880200000044400b3
:1086b800430020001281c3008100e9004608c3007e
:1086c800e01aae00050037002202200037197800b2
:1086d80037197800371978006700b1000180090060
:1086e8004608c10022022000b21b7800b21b7800a5
:1086f800b21b780025e0af000010cb000080cb0053
:10870800050454002800b100050555008301e9005f
:10871800eaff3a008087cc00e20f20000280e600e2
:10872800e00f20004f0578004f0478000000060095
:108738008600fa0010879800218798000e8fe800bd
:108748009e007800d0cbb300804878009e00780067
:1087580040c0b300904098001e0178009e809000b1
:10876800f00f200080806000224090006040600090
:1087780001407000204198001e809000c800de0073
:108788003240900060406000014070003041980025
:108798001e017800ae809000f00f200080806000fd
:1087a80042409000604060000140700040419800e5
:1087b8002e809000c800de005240900060406000ab
:1087c8000140700050419800610020001e007800b0
:1087d800961807000080fa00000006000200fa0060
:1087e800004f7800114798001e407800ce1e070001
:1087f800e00420000100200004fb0700e004200042
:108808000100200001fb0700e00420000100200017
:10881800fefa0700e004200001002000fbfa070030
:108828000080fa00000006000600fa000040eb0095
:1088380050f0b7000000eb00100798001800370050
:108848008bdabf0011c0b300ef1c0700020521003e
:1088580012417800f0ba800001002000af1f070025
:10886800000f780020032000e81a0700ad1c07005d
:108878005007200001002000e4fa07006082800011
:108888009e0f1000030036001000200020079800fb
:10889800080037001e0090000000e800100798004c
:1088a8001e009000e20f5000e5ff36000000eb00cc
:1088b800200798002e0090000080fa0000000600b3
:1088c8000400fa0011c0b30080c0b300ce1c07003a
:1088d8000205210012417800f0ba80000100200052
:1088e8008e1f0700000f7800608280009e0f100026
:1088f8000d00360081ba80000040eb005e1e0700c4
:1089080020032000c11a0700861c0700608280002f
:108918009e0010001005200085ff070010002000b1
:10892800100798000c00370020032000b71a070032
:108938007c1c070080ba8000b41a0700791c070065
:10894800608280009e0050000005200078ff07002c
:108958000000eb00100798001e0090000080fa004d
:10896800000006000600fa00200798002e0090007c
:1089780011c0b300a41c07002e0090001007980037
:108988000205210012417800f0ba800001002000a1
:10899800621f0700000f7800608280009e0f1000a1
:1089a8000400360081ba80000040eb00321e070048
:1089b8000b0037001e0090000000e8001007980028
:1089c8001e009000e70f500005003e0010bb80001d
:1089d800f1ba800001005000521c0700e8ff370080
:1089e8001e0090000080fa00000006000200fa0055
:1089f80020032000851a07004a1c070011c0b30095
:108a080090c0b300801c07000205210012417800c5
:108a1800f0ba800001002000401f07000001780024
:108a2800618280000040eb00004f7800810f510008
:108a38000200390010c0b300004f78002003200066
:108a4800721a0700371c0700500720000100200099
:108a58006efa07001e80fb000080fa000000060086
:108a68000800fa00000f78002147980022079800b4
:108a7800330798002e4090000004e0000400320004
:108a880011002000e001200029ff07000300370043
:108a98008000eb00e001200025ff0700ae009000f9
:108aa800f001200022ff0700be0090000002200015
:108ab8001fff07003e019000ae0090002e4090007e
:108ac800f52107001e00780060828800c00320009e
:108ad8007082880060c0b3001af0b700c0c0b3004d
:108ae8001bf0b7000040eb0050f0b7000080fa0020
:108af800000006000200fa009adabf00ef4f5000ab
:108b0800020036000040eb009afab7000040eb0084
:108b1800004f78000e0037009adabf000081fb0092
:108b28009e81fb009e80fb006006210000804000c3
:108b380010427800a00220000090b9008300400095
:108b48000009210000804000044878001e4fe8001a
:108b580090c2b3009e4f1000efff36009adabf00b4
:108b68000040e8009afab7009adabf00f04f5000c8
:108b780002003a000040eb009afab7000080fa00c1
:108b8800000006000400fa000040eb0010479800bf
:108b98001f0037000040eb00004f78001600370038
:108ba8001e4090008080fb001e81fb00a002200078
:108bb8000088b900820040000009210000804000c0
:108bc800104178009e80fb00600621000080400074
:108bd80010407800804f51000a003a0090c2b3005c
:108be8009e4f100003003a00100020001007980064
:108bf8000c0037001e4fe80090c2b3009e4f1000d3
:108c0800e7ff36001e4090000040e800104798003b
:108c18001e409000ef4f5000deff36000000eb00d2
:108c2800100798001e0090000080fa00000006005f
:108c38000800fa001007980021079800400020005b
:108c4800000f78001e0037001e0078009e0090007c
:108c58000000400001004000100178001e0078006c
:108c6800ae009000000040000100400010007800b5
:108c7800800f5100030031000080eb00300798009e
:108c8800150037001e0078009e009000000040008c
:108c980001004000100178001e007800ae0090002e
:108ca800000040000100400010007800800f5100d3
:108cb8000300360010002000300798000600370037
:108cc8001e0fe9000080eb009e0f1000deff3a0047
:108cd8000000eb00300798003e0090000080fa008a
:108ce800000006000600fa00200798000000eb00cc
:108cf800100798002e009000650f500009003700fb
:108d08009e00780060062100008040001040780036
:108d18008080fb001e0090000100400010079800b2
:108d28001e0fe8002e0090009e0f1000f4ff39007f
:108d38001e00900000c0ea000080fb006700600091
:108d48000080fa00000006000800fa0020079800da
:108d58000000eb00100798002e009000650f5000ef
:108d6800090037009e00780060062100008040005e
:108d7800104078008080fb001e0090000100400039
:108d8800100798001e0fe8002e0090009e0f10009c
:108d9800f4ff36001e009000670060008000eb00c2
:108da80031079800e70f500002003a001000200039
:108db800300798003e0090000080fa00000006008e
:108dc8000e00fa0050079800610798000000eb00b9
:108dd800400798005e009000670040003007980048
:108de80090002000200798000000eb001007980072
:108df8000000eb00000f78001e009000e40f500008
:108e080029003e001e0090000000e80010079800ae
:108e18006e0090009e0f10000b0031009e0078003d
:108e28006006210000804000104078008080fb0030
:108e38002e0090008008dd004e0090000080700039
:108e48004007980003003700800120009e0f1000a3
:108e5800190032002e009000e20f50000e003e0074
:108e6800680047000000e800904078003e0090004d
:108e7800014878003e0090000000e90030079800a3
:108e88002e00900068004000200798004e009000d7
:108e98004800dd00400798002e0090006300500055
:108ea80020079800020037000000eb001007980028
:108eb8001e0fe800d0ff3700680047000000e800f8
:108ec800904078003e009000014878000080fa0049
:108ed800000006000e00fa00600798006e0090007f
:108ee800b0009000510798006e00900065004000a7
:108ef8004007980090002000300798000000eb0021
:108f0800200798000000eb00100798002a0037009f
:108f18002e009000e40f50001b003e002e00900031
:108f28000000e80020079800be0090005e00900056
:108f38000100de00674f60003e009000e20f500025
:108f48000d003e003e009000680040003007980089
:108f58005e009000c800dd004e00900010407800d0
:108f68000080fb0000804000500798004e009000f1
:108f78000000e900400798003e00900063005000a0
:108f880030079800050037000000eb002007980024
:108f98001e00900053ff0700004f78009e009000cd
:108fa80060062100008040001e4878001e009000e6
:108fb8000000e800100798001e009000f70f50000e
:108fc800d3ff36000080fa00000006001800fa00ff
:108fd800100f9800210f98002e08900062002000c2
:108fe800110009000280d800000f98002e08900098
:108ff80062002000110009000280d8008000fd00f6
:10900800700798007e009000e50f5000270032009e
:109018001e08900040079800ae0890000e089000c7
:1090280000805000300798003e0090007300100048
:109038006300b900200798002e0090004300de006e
:10904800100798009e0090004e009000008040009d
:10905800104078000080fb00000f78002e00900080
:1090680067006000200798002e009000e50f500070
:10907800080036009e0090004e00900000804000de
:109088000000e800104078000080fb004800dd0088
:109098001e0f70002e0090009e0078000008de0071
:1090a80067006000300f9800180037000000eb00e0
:1090b800600798002e08900065005000500798003f
:1090c8000a003700de0090001e089000bfff07006e
:1090d800800078006e009000010040006007980052
:1090e8005e0090000000e80050079800de00900045
:1090f8002e089000808f5000f2ff39006e0090001b
:109108000080ea0067006000300f98003e08900079
:109118000080fa00000006001400fa00e7c2bf0051
:10912800624060000004e0000300320020002000dc
:10913800100f9800360037004def0700b2ef070018
:109148000004e0000300320040002000100f9800e7
:109158002f0037009aef07000004e00003003200f8
:1091680030002000100f9800290037000000eb00a5
:10917800000f780050c3200001002000a3f807006a
:10918800581a0700020521001241780040bb8000f0
:1091980001002000611d07008001780060828000c6
:1091a800a2002000110009000280d8006900b9005f
:1091b800808f51000200360060002000000f780008
:1091c8002a1d0700a0612000010020008ff8070079
:1091d8000e80e8004c230700020037000040eb0037
:1091e800fcf707000e80e800204090000004e00033
:1091f800faff32004d2307000004e00002003a00a5
:1092080050002000000f78001e007800100f980012
:109218001e0890000080fa00000006000000fa0016
:109228000000eb00b099880041a821009140780027
:10923800f0ceb30000c0600084fab7000040eb0035
:109248003cf3b7000040eb003df3b7000000eb0033
:10925800f09988000000eb00009a88000080eb007d
:10926800109a88000000eb00209a88000000eb00ac
:1092780090d488000000eb00a0d488000000eb0028
:10928800108388000000eb00208388000000eb00ba
:10929800b0d488000000eb00c0d488000080fa0039
:1092a800000006000200fa00000f78000040eb0002
:1092b80050f0b7001e0078008040eb0047fd070023
:1092c8008040eb00b0c0b3004f1a07002003200015
:1092d8004e180700131a070050072000010020004d
:1092e8004af807008040eb00b0c0b300461a0700f8
:1092f80020032000451807000a1a0700500720001d
:109308000100200041f807008040eb00b0c0b30026
:109318003d1a0700200320003c180700011a070027
:10932800500720000100200038f807000080fa00ec
:10933800000006000400fa00000f78000040eb006f
:1093480050f0b70038fd07000004e00009003a00bb
:109358001e0078008040eb0020fd070032fd07006a
:109368000004e00003003a000000eb00100798003a
:109378000200370010002000100798001e0090001f
:109388000080fa00000006000400fa0010079800a8
:109398001e009000004f7800060037009e80fb00fa
:1093a80060062100808040000040eb008048780083
:1093b8001e4fe80090c2b3009e4f1000f7ff360022
:1093c8000080fa00000006001000fa00204f980004
:1093d8000040eb00004f98000040eb0070479800f9
:1093e8000040eb006047980068d6bf000004e0002a
:1093f8002b00320080998000704798007e409000d2
:109408000004e0004a003a0046d3bf000004e00030
:109418004700320070c0b3009bfab7000040eb0071
:1094280046f3b7008040eb0050c0b30022060700a7
:10943800e14f500003003a0060c0b3007047980045
:109448003b00370070828000baff07000004e0008c
:109458000e00320010c0b3003cf3b7000040eb0030
:10946800704798002e4890000004e0003000320059
:109478005a070700504798005e4090008080fb0024
:10948800b0002000aafc0700290037000000eb000c
:10949800809988000000eb00700798007f01370072
:1094a80046d3bf000004e000210032000040eb007a
:1094b80046f3b7008040eb0050c0b300fe0507003c
:1094c800e14f500003003a0060c0b30070479800b5
:1094d800170037007082800096ff07000004e00044
:1094e8000e00320010c0b3003cf3b7000040eb00a0
:1094f800704798002e4890000004e0000c003200ed
:1095080036070700404798004e4090008080fb00d7
:10951800b000200086fc0700050037000000eb00c3
:10952800809988000000eb00700798005b01370005
:109538007e4090000080fb0080998800470137003a
:10954800508280000000e0004a013a006e4090001e
:109558000004e00013003200c1a821009140780007
:10956800a0c2b30080cf50000e003a00809980005e
:1095780085ff07008cdabf000080fb008099880017
:1095880020c0b3008dfab7008ddabf008080fb00e1
:109598001006200066fc07001000200070079800e5
:1095a8003e01370080998000e20f50001d00360010
:1095b8008ddabf000004e000160032000040eb0026
:1095c80068f6b70066d0bf00e14f500005003a00ca
:1095d80010c0b30068f6b70020c1b3008cfab7001a
:1095e8001000370066d0bf00e24f500003003a0079
:1095f800a0c2b3008cfab7000a00370066d0bf00db
:10960800e34f500007003a00c0c0b3008cfab7001f
:1096180004003700c0c0b3008cfab7000040eb006c
:1096280068f6b7003cd3bf000004e0000700320032
:109638008199800060062100008040001040780079
:109648000080fb0060079800020037000000eb0074
:10965800600798006e009000c0998800c09980004b
:109668001007980032d3bf000004e0000b0032005e
:109678000e4890000004e00008003a001e00900028
:109688000000e0000500320010c0b300004f980051
:109698001e0090000000e900100798001e009000ce
:1096a800b0fc0700d0998800d0998000e80f5000de
:1096b80056003a00409a80000000e800409a88006e
:1096c800409a8000e40f5000030036000000eb00d1
:1096d80070079800f1003700409a8000e30f5000af
:1096e8003a003e0080998000e50f500037003600b0
:1096f80080998000004f78009e80fb006006210062
:109708000080400010407800e64f50000e003e00f8
:109718001e81fb0060062100000041001040780017
:109728008040e80060062100000041000148780000
:109738001e80fb000000e80013ff07000040eb005c
:10974800604798007aff37009e80fb006006210082
:10975800808040000040eb00804878001e80fb00bd
:109768008000e90060062100008040001040780079
:10977800e64f50000a003e001e80fb000001e90091
:109788006006210000004100104078008040e80099
:1097980060062100000041000148780006003700fb
:1097a8001e80fb008000e9006006210080804000e8
:1097b8000040eb00804878001e80fb00f2fe0700a6
:1097c8000040eb006047980059ff37007082800026
:1097d800d8fe07000004e0000900320010c0b30002
:1097e8003cf3b7000040eb00704798000000eb0026
:1097f800e5fe07000040eb00604798004cff37008b
:109808000000eb0070079800a400370082998000e0
:10981800d099800080407800600621000000410057
:10982800014878008ddabf000004e0005b003200d8
:10983800c1a8210091407800a0c2b30080cf500099
:1098480056003a0080998000ec0f50000700320063
:1098580080998000f80f5000040032008199800040
:1098680040022000808f500010003a00819980004b
:10987800600621000080400010407800e74f50004b
:1098880046003a00809980008080e9006006210047
:109898000080400010407800e74f50003f003a0039
:1098a80010c0b300604798003c00370080998000e2
:1098b800e20f50002a00320080998000e40f500027
:1098c8002700320080998000e70f50002400320002
:1098d80080998000e90f50002100320080998000b3
:1098e800ee0f50001e00320080998000f00f5000eb
:1098f8001b00320080998000f30f500018003200de
:1099080080998000f50f5000150032008099800082
:10991800fa0f50001200320080998000fc0f5000ae
:109928000f00320080998000ff0f50000c003200b9
:109938008199800010022000808f500008003200ba
:109948008199800060022000808f5000040032005e
:109958008199800080022000808f50000f003a001b
:109968008199800060062100008040001040780046
:10997800e74f500009003a00809980008000e90014
:10998800600621000080400010407800e74f50003a
:1099980002003a0010c0b300604798008099800028
:1099a800e50f50001400320080998000eb0f500042
:1099b8001100320080998000f10f50000e00320033
:1099c80080998000f70f50000b00320080998000ca
:1099d800fd0f5000080032008199800030022000fd
:1099e800808f50000400320081998000900220008e
:1099f800808f500008003a0080998000d2fc070050
:109a08000004e00004003a00adfb07000000eb0092
:109a18007007980021003700d1998000c099800014
:109a2800808f50000a00320068d6bf000004e000b2
:109a3800020032000040eb003cf3b70032d3bf0015
:109a48000004e00002003a000040eb003cf3b700dd
:109a5800809980000000e800809988008099800043
:109a6800c1a82100914078008180fb00810f50003f
:109a7800b3fe39008099800043fe07008199800079
:109a8800a0022000808f500002003a0020c0b300de
:109a98008dfab70010002000700798007e00900033
:109aa8000080fa00000006000600fa00204798002f
:109ab800314798000000eb00409a88000040eb0016
:109ac8003cf3b700819980008cdabf000080fb006e
:109ad800808f50008e003a0010c0b300004f78000d
:109ae8000000eb00f09988002cd0bf008080fb00bc
:109af8002dd0bf000080fb004800dd000100700091
:109b0800000178002ed0bf008080fb002fd0bf005e
:109b18000080fb004800dd00010070008001780033
:109b280061014100e0814900f00f200080006100e0
:109b38002cd0bf0060406000014070002cf0b700de
:109b4800c810de002dd0bf006040600001407000ea
:109b58002df0b700f00f2000808061002ed0bf00ec
:109b680060406000014070002ef0b700c818de00a9
:109b78002fd0bf0060406000014070002ff0b70098
:109b88002cd0bf008080fb002dd0bf000080fb00e0
:109b98004800dd0001007000000178002ed0bf00f1
:109ba8008080fb002fd0bf000080fb004800dd0054
:109bb8000100700080017800e00f5100e08f59002b
:109bc80026003a002cd0bf008080fb002dd0bf00bb
:109bd8000080fb004800dd000100700000017800f3
:109be8002ed0bf008080fb002fd0bf000080fb007c
:109bf8004800dd000100700080017800610151001b
:109c0800e0815900f00f2000800061002cd0bf00d7
:109c180060406000014070002cf0b700c810de0002
:109c28002dd0bf0060406000014070002df0b700eb
:109c3800f00f2000808061002ed0bf0060406000df
:109c4800014070002ef0b700c818de002fd0bf000a
:109c580060406000014070002ff0b7001e04e00073
:109c68002600320016fb0700c6fb07000004e000d0
:109c780004003a009ffb070090d480000000e80031
:109c880090d4880010c0b30046f3b7008ddabf0047
:109c98000004e00005003a00620621008040eb0065
:109ca800c000200063f307001400370066d0bf002f
:109cb800e14f500005003a00620621008040eb00a9
:109cc800f00020005bf307000c00370066d0bf00ef
:109cd800e24f500005003a00620621008040eb0088
:109ce800e000200053f3070004003700620621005b
:109cf8008040eb00d00020004ef3070010c0b300f6
:109d08003cf3b700100020002007980042003700fd
:109d1800f09980000000e800f099880032d0bf0078
:109d28008080fb0033d0bf000080fb004800dd00ce
:109d3800010070000001e800f00f200080006100c1
:109d480032d0bf00604060000140700032f0b700c0
:109d5800c810de0033d0bf006040600001407000d2
:109d680033f0b70032d0bf008080fb0033d0bf0093
:109d78000080fb004800dd00010070000000e000ea
:109d880012003a0032d0bf008080fb0033d0bf0001
:109d98000080fb004800dd00010070000001e900c0
:109da800f00f20008000610032d0bf0060406000ea
:109db8000140700032f0b700c810de0033d0bf0099
:109dc800604060000140700033f0b7002e40900002
:109dd8000004e0000e003200f1998000700c2000b1
:109de800808f50000a003600cbfc070050828800a4
:109df800508280000000e00002003a00800020004d
:109e0800508288000000eb0020079800020037000d
:109e18000000eb00200798002e0090000080fa0058
:109e2800000006000200fa0011ec070064ec0700cd
:109e38000004e00005003200300020005082880055
:109e48000000eb00000f7800110037006eec0700ef
:109e58000004e00005003200400020005082880025
:109e68000000eb00000f7800090037003dd3bf0069
:109e78000004e000030032000000eb00000f78004f
:109e8800030037001717070010002000000f7800a4
:109e98001e0078000080fa00000006000a00fa00a0
:109ea8001007980041479800809980000000e00062
:109eb80002003a000000eb00100798001e00900016
:109ec80040079800ce0090000100e0000400320036
:109ed8004e009000e10f50001000320043003700a0
:109ee8000000eb0028fd07000000eb0080998800c7
:109ef8004e4090000080fb000efd07000004e000cb
:109f080003003200110020003107980039003700a3
:109f18000000eb0030079800360037000040eb00e7
:109f2800004f7800809980000000e0001d0032009a
:109f3800809980000000e90080998800abfa07004a
:109f4800104798001e4090000004e0001500320001
:109f5800809980000040e9008040eb00560307002c
:109f68000004e0000c003200809980000000e80046
:109f780005fd0700c1a82100914078008099800064
:109f880000c050000040e9009bfab7001100200013
:109f980031079800170037000000eb0030079800e1
:109fa800140037009bdabf008040eb00514798004f
:109fb8009e4f10000200310010c0b30050479800b7
:109fc8001e4fe8005e4090000004a2000004e0007c
:109fd80003003a00809980000000e000d1ff3a00b9
:109fe8008000eb0031079800020037000000eb000a
:109ff800300798003e0090000080fa00000006003c
:10a008000e00fa00200798006147980072479800f0
:10a01800034f9800144f9800254f98000000eb005c
:10a02800f09988001e4890000004e0000700320004
:10a03800d0c0b3008bfab700a0c2b3008cfab70047
:10a0480010c0b3008dfab70006003700a0c0b300f7
:10a058008bfab700c0c0b3008cfab7000040eb0021
:10a068008dfab7006e4090000004e000070032004f
:10a07800020a2000ae0090000040eb0043050700f4
:10a08800d030200001002000e0f407000000eb00c1
:10a09800409a88000040eb0046f3b7000000eb0050
:10a0a800b9fc07000000eb00809988008040eb00b5
:10a0b8000e489000c9f90700530037008ddabf0039
:10a0c8000004e0000200320010c0b3008dfab700af
:10a0d80068d6bf000004e000210032008e489000de
:10a0e800100020006dff07000004e00019003a008e
:10a0f8000000eb008099880010c0b30046f3b70059
:10a108000e4890000080fb008afc07000004e00075
:10a1180006003a0011002000a000200084f9070082
:10a1280010002000600798003c0037002e4890007f
:10a138000004e0001d0032002804070010479800c2
:10a148001e4090008080fb00b000200078f90700d6
:10a15800160037000040eb0046f3b7001300370045
:10a168000e4890000080fb0072fc07000004e0002d
:10a1780006003a0011002000a00020006cf907003a
:10a188001000200060079800240037002e48900037
:10a198000004e0000500320010040700004f7800ba
:10a1a8009e80fb00b000200061f907002e48900057
:10a1b80085fc070020479800508280000000e000de
:10a1c80014003a0080998000c1a8210091407800cd
:10a1d8008180fb00810f50000e0039002e40900056
:10a1e8000004e000050032008e4890007e40900098
:10a1f8002dfe07000004e0000600320009ff0700fa
:10a208000004e00003003200508280000000e000fb
:10a21800aaff32000000eb00600798006e00900073
:10a228000080fa00000006000600fa0020479800a7
:10a2380031479800424798002e409000004f780020
:10a248002e4090008080fb00020a20000040eb00b6
:10a25800ce0407000c1907004e4090001e4f400026
:10a2680070cab3009e4f10000200360070cab300d7
